:020000040800F2
:10000000B06F0020D50300088B3D0008EF3A0008D0
:10001000893D0008371F00085D5E000800000000F1
:1000200000000000000000000000000015030008B0
:10003000AD1F000800000000710300081D3F00080C
:10004000EF030008EF030008EF030008EF030008C8
:10005000EF030008EF030008EF030008EF030008B8
:10006000EF030008EF030008EF030008EF030008A8
:10007000EF030008EF030008EF030008EF03000898
:10008000EF030008EF030008EF030008EF03000888
:10009000EF030008EF030008EF030008EF03000878
:1000A000EF030008EF030008EF030008EF03000868
:1000B000E13F0008EF030008EF030008EF0300082A
:1000C000EF030008EF030008EF030008EF03000848
:1000D000EF030008EF030008EF030008EF03000838
:1000E000EF030008EF030008EF030008EF03000828
:1000F000EF030008EF030008EF030008EF03000818
:10010000EF030008EF030008EF030008EF03000807
:10011000EF030008EF030008EF030008EF030008F7
:10012000EF030008EF030008EF030008EF030008E7
:10013000EF030008EF030008EF030008EF030008D7
:10014000EF030008EF030008EF0300088D3D0008EF
:10015000EF030008EF030008EF030008EF030008B7
:10016000EF030008EF030008EF030008EF030008A7
:10017000EF030008EF030008EF0300080000000091
:10018000EF030008EF03000800F002F800F0B2F8F7
:100190000AA090E8000C82448344AAF10107DA45E2
:1001A00001D100F0A7F8AFF2090EBAE80F0013F082
:1001B000010F18BFFB1A43F001031847EC7600004B
:1001C0000C7700000A444FF0000C10F8013B13F0CC
:1001D000070408BF10F8014B1D1108BF10F8015BA0
:1001E000641E05D010F8016B641E01F8016BF9D193
:1001F00013F0080F1EBF10F8014BAD1C0C1B09D1EA
:100200006D1E58BF01F801CBFAD505E014F8016B5B
:1002100001F8016B6D1EF9D59142D6D370470000ED
:100220000023002400250026103A28BF78C1FBD8FF
:10023000520728BF30C148BF0B6070476E2900F0DD
:10024000C382702900F00D84662907F07082652949
:1002500007F06D82672907F06A82612907F06982D9
:1002600003681B0A28BF41F08001692900F07082F1
:10027000642900F06D82752900F06A826F2900F010
:100280009A83782900F0D983E92900F03583E4299D
:1002900000F03283F52900F02F83EF2900F09783D7
:1002A000F82900F0D8830368DB0928BF41F08001FA
:1002B000632901F0FD80732901F00281E32901F037
:1002C0000D81F32901F01281002070471FB507F05E
:1002D00029FA01F05DF904000020002107F00CFA72
:1002E000401C60600020002107F0F0F9E0601FBDB5
:1002F00010B510BD01F01EF91146FFF7E7FF05F03C
:10030000DDFD01F0FBF903B4FFF7F2FF03BC01F0E0
:1003100043FA00002C4B19680868B0E8F04F80F3EE
:100320000988BFF36F8F4FF0000080F3118870478A
:100330000000000008480068006880F308884FF05B
:10034000000080F3148862B661B6BFF34F8FBFF32D
:100350006F8F00DF00BF00BF08ED00E0DFF80C008A
:10036000016841F470010160704700BF88ED00E052
:10037000EFF30980BFF36F8F134B1A681EF0100F55
:1003800008BF20ED108A20E9F04F106009B44FF04B
:10039000500080F31188BFF34F8FBFF36F8F06F0CB
:1003A00067FC4FF0000080F3118809BC19680868E9
:1003B000B0E8F04F1EF0100F08BFB0EC108A80F3C9
:1003C0000988BFF36F8F70470C010020EFF30580A1
:1003D000704700000948804709480047FEE7FEE7EC
:1003E000FEE7FEE7FEE7FEE7FEE7FEE7FEE7FEE7E5
:1003F00004480549054A064B70470000D13F0008F4
:1004000089010008B0670020B06F0020B06B0020A9
:10041000B06B002053EA020C00F069802DE9F04B2C
:100420004FF00006002B1FBFB3FA83F503FA05F463
:1004300024FA05F65E4012BF1643B2FA82F502FABC
:1004400005F4C5F120051EBF22FA05FC44EA0C04A0
:10045000203556EA044C4FEA144418BF641C4FF090
:1004600000084FF00009904271EB030C39D30029CA
:1004700019BFB1FA81F701FA07F6B0FA80F700FA6E
:1004800007F6C7F120071EBF20FA07FC46EA0C0654
:100490002037B6FBF4FCA7EB0507103F07F01F0B56
:1004A000CBF120060CFA0BFB2CFA06F644BFB34640
:1004B0000026202FA4BF5E464FF0000B5BEA060C1F
:1004C00008BF4FF0010B19EB0B09ABFB027C48EBAB
:1004D0000608C01B06FB02CC0BFB03CC71EB0C0126
:1004E000C1E70B46024641464846BDE8F08B13B5CE
:1004F0004FF000004FF00001AFF30080BDE81C405A
:10050000704700007CB51D4616460C00009001D0D7
:100510002044401E074B7B442A46694601903046E2
:1005200000F06BF905461CB10020694600F078F92F
:1005300028467CBD11030000032A40F2308010F0F1
:10054000030C00F0158011F8013BBCF1020F62446E
:1005500098BF11F801CB00F8013B38BF11F8013BFF
:10056000A2F1040298BF00F801CB38BF00F8013BAC
:1005700011F0030300F02580083AC0F0088051F81C
:10058000043B083A51F804CBA0E80810F5E7121D27
:100590005CBF51F8043B40F8043BAFF30080D20746
:1005A00024BF11F8013B11F801CB48BF11F8012B12
:1005B00024BF00F8013B00F801CB48BF00F8012B35
:1005C000704710B5203AC0F00B80B1E81850203ABF
:1005D000A0E81850B1E81850A0E81850BFF4F5AFE3
:1005E0005FEA027C24BFB1E81850A0E8185044BF6D
:1005F00018C918C0BDE810405FEA827C24BF51F8DA
:10060000043B40F8043B08BF7047D20728BF31F8CD
:10061000023B48BF11F8012B28BF20F8023B48BF1E
:1006200000F8012B704702F0FF0343EA032242EA7D
:10063000024200F0E7BA4FF0000200B513469446BC
:100640009646203922BFA0E80C50A0E80C50B1F12A
:100650002001BFF4F7AF090728BFA0E80C5048BF3E
:100660000CC05DF804EB890028BF40F8042B08BFDC
:10067000704748BF20F8022B11F0804F18BF00F8D8
:10068000012B704770477047704770B50446856905
:100690000068C10601D5302600E02026C00707D03B
:1006A00070BDD4E9012130469047206A401C206289
:1006B0006D1EF6D570BD70B5044685690078C0071B
:1006C00007D170BDD4E9012120209047206A401C49
:1006D00020626D1EF6D570BD09684A0501D540B28D
:1006E0007047C905FCD500B2704709684A0501D5B5
:1006F000C0B27047C905FCD580B2704770B50C46D2
:100700000546012A05D02878800600D5EA6900232D
:1007100002E0012305E05B1C934202D2E05C00286A
:10072000F9D1A869E618C01AA861286A1844286295
:100730002846FFF7AAFF04E0D5E9012114F8010BD0
:100740009047B442F8D32846FFF7B5FF70BD0000CC
:100750002DE9F0410646002410687529314616A59A
:1007600010D0FFF7B9FF002802DA404213A507E0D6
:1007700031688A0701D512A502E0490704D511A501
:10078000012401E0FFF7B1FF00210A2206F124074E
:1007900009E0B0FBF2FCB0FBF2F302FB1C003030CE
:1007A00078541846491C0028F3D123462A4630467F
:1007B000BDE8F04100F08BBA000000002D00000001
:1007C0002B0000002000000011680268006A530539
:1007D00001D508700AE0D30501D5088006E01306AC
:1007E00003D5C217C1E9000200E00860012070478C
:1007F00001694A1C02610878704700B58FB0CDE9E5
:1008000001310021059105497944CDE903101146D4
:10081000684600F031F90FB000BD0000E5FFFFFFB2
:100820000A6802F8010B0A607047D1E900239A4276
:1008300002D2531C0B601070704700002DE9FF5F5F
:1008400015468A460446DFF8AC80F8440027D8E90C
:1008500000103E46CDE9001010E03AF816106A4646
:1008600002A800F047FE411C07D02178890603D575
:10087000E269391891420DD80744761C2078800629
:1008800002D5E069B84205DDAE42E6DB3AF8160073
:100890000028E2D1A069C01BA0612046FFF7F5FE49
:1008A000D8E90010CDE90010002017E03AF8181040
:1008B0006A4602A800F01EFEB0F1FF3F81460BD051
:1008C00000250DF1080B05E0D4E901211BF8050016
:1008D00090476D1C4D45F7D308F10100B0428046AA
:1008E000E4DB206A384420622046FFF7E4FEBDE8DE
:1008F000FF9F00004A6F00002DE9F0418046D21DA5
:1009000022F007020025D2E90002F52915A614D02D
:10091000011E72F1000106DA0023D0EB030063EB45
:10092000020211A608E0D8F800108B0701D50FA627
:1009300002E0490701D50EA601251146002408F161
:10094000240704E000F07EF930323A55641C50EA86
:100950000102F7D12B46324621464046BDE8F04120
:1009600000F0B5B9000000002D0000002B000000D1
:100970002000000030B4002100F1240408E002F05F
:100980000705D208303542EA4372DB086554491C3A
:1009900052EA0305F3D10468002310A2250707D506
:1009A000A40600D421B1C46901230DA2641EC46150
:1009B00030BC00F08CB910B5044621461068FFF732
:1009C00094FE02462046BDE810400023D2E7D21D27
:1009D00022F00701D1E90023CCE70000000000006D
:1009E00030000000F0B40D460188090502D5214C05
:1009F0007C4402E01F4C7C440E34002100F12406AC
:100A000008E002F00F071209E75D42EA03721B09D2
:100A10007754491C52EA0307F3D1027800231207E6
:100A200004D5702D06D009B1022311342246F0BC42
:100A300000F04DB901231034F8E770B504460D46B7
:100A400021461068FFF751FE024629462046BDE8C0
:100A500070400023C6E7D21D22F00703D3E900232C
:100A6000C0E70368126843F0200303600823C361F2
:100A70000023B7E7AC6D00002DE9F05F894604461E
:100A80004FF0000ADFF874B1FB44C0F820A0204604
:100A9000E1688847002874D0252806D0D4E90121D0
:100AA0009047206A401C2062F1E700265F462046FE
:100AB000E16888472028054607DB312D05D27819E3
:100AC00010F8200C08B10643F1E7B00701D526F075
:100AD0000406C4F81CA00027C4F818A02A2D09D0C9
:100AE000284605F0E4F938B304EB8708303DC8F830
:100AF000185019E059F8041B204604EB8702916155
:100B0000E1688847012F054618D1E069002820DAFE
:100B100026F020061DE0D8F8180000EB800005EB59
:100B200040003038C8F818002046E168884705467C
:100B300005F0BDF90028EED1012F0AD02E2D08D1E5
:100B40002046E16888477F1C0546022F46F02006B4
:100B5000C4DBA069002803DA404246F00106A06128
:100B6000F00701D026F010066C2D0BD0682D09D0AF
:100B70004C2D39D06A2D35D0742D35D07A2D33D007
:100B800016E038E0E1682F4620468847B84205461F
:100B900009D16C2F26D04FF48060E16806432046CF
:100BA0008847054604E06C2F1AD04FF48070064346
:100BB0000DB3A5F14100192802D8203546F400668E
:100BC0004A462946204626604E46FFF737FB80B14D
:100BD00001280BD0F61D26F0070000F1080956E7A2
:100BE0004020E4E78020D8E70020D6E706F104099A
:100BF0004DE7284652E7206ABDE8F09F3C6D0000B3
:100C00004FF000020429C0F0128010F0030C3FF4F2
:100C100014ADCCF1040CBCF1020F18BF00F8012B8D
:100C2000A8BF20F8022BA1EB0C01FFF706BD5FEA7D
:100C3000C17C24BF00F8012B00F8012B48BF00F84D
:100C4000012B704730B5B0F10A024FEA900E71F1F6
:100C500000034EEA817EB0EB0E0061EB91014FEA9A
:100C6000101E4EEA017E10EB0E0041EB11114FEA0F
:100C7000102E4EEA016E10EB0E0041EB11214FEAEF
:100C8000104E4EEA014E10EB0E0041EB11414018A0
:100C900041F100014FEAD00040EA41704FEAD10132
:100CA00010EB80054FEA810444EA907444EB0104A0
:100CB0006D1944EB0404521BA3414FF0000348BFDD
:100CC0000A3200D530BD401C41F1000130BD2DE994
:100CD000F0470D4699469246044600F12408016803
:100CE000880604D5E06921F01001216000E00120B0
:100CF000A84201DD471B00E00027A1697A1902EB39
:100D00000900081AA0612078C00602D42046FFF727
:100D1000BCFC002608E0D4E901211AF8060090473F
:100D2000206A401C761C20624E45F4DB2078C00609
:100D30000AD52046FFF7A9FC06E0D4E901213020BE
:100D40009047206A401C2062381EA7F10107F4DC9E
:100D500007E0D4E9012118F805009047206A401CFB
:100D60002062281EA5F10105F3DC2046FFF7A3FC55
:100D70002078000602D50220BDE8F0870120FBE7BD
:100D800070472DE9FF4F0C461E464FF0FF378BB0E2
:100D9000D2E90001DDF860800A908A46C1F30A5565
:100DA00005B93D46002108464FF00000BAF1000F9A
:100DB00000F4400005DA00EB80004FF4400101EA46
:100DC00050004FEA9059B9F1010F00DDB9460A9879
:100DD00050EA4A000ED044F61050A5F2FF354543C4
:100DE0002F14B8F1000F1ED07542291E1EDDC9F167
:100DF00000021CE0B8F1010F4FF0000001D03021DB
:100E000003E0F24305E02154401CB042FBDB3046D6
:100E10000022002121540B99C1F80880C1E900206B
:100E20000FB0BDE8F08FBD1B6D1CDEE74A4600DA4F
:100E3000694206A800F0F0FB06AB93E8070003AB9D
:100E400083E8070050460A9900F0ADFC8DE80700E2
:100E5000A0F500501F3800900398002D0ADD42F2E3
:100E60001F014A460844002303A90390684600F086
:100E700016FF09E0A0F500504A461F38002303A9D9
:100E80000390684600F020FF8DE807000004000C86
:100E900003D04FF0FF30410800E01046B8F1000FDA
:100EA00003D00022009215461EE0751E05D4FFF700
:100EB000C9FE303262556D1EF9D5B3460122084392
:100EC00002D000227F1C04E02078302801D10022CB
:100ED0007F1E002A099784D01DE0112D07DAFFF745
:100EE000B1FE303262556D1C50EA0102F5D1084363
:100EF00002D00098C8B10EE00021681E05E0235C16
:100F0000625C63542254401E491C8142F7DBAB46AD
:100F1000A81B401E0990002004F80B000B98099AAA
:100F2000C0F80880C0E9002B7AE711264FF00008CE
:100F300057E72DE9F04F88460446D21D22F00701FD
:100F400091B0D1E90001CDE90A0104F088FF024621
:100F50000B98C00F01D02D2007E02068810701D534
:100F60002B2002E0202101EAC000032A099001D0D1
:100F7000072A05DB03464146204600F00DFB0BE146
:100F80002078800601D5E06900E00620B8F1650F01
:100F9000814606D0B8F1660F18D0B8F1670F70D14E
:100FA00031E00020B9F1110F009001DB112301E0C5
:100FB00009F101030AAA01A90CA8FFF7E2FEDDE985
:100FC0000C70002609F10105834647E001204B46DD
:100FD00000904FF000470AAA01A90CA8FFF7D1FE24
:100FE000DDE90DB00C995D46002610B909F101004C
:100FF0000D18B9EB050003D4C0F1FF3609F1010566
:10100000A5EB09002BE0B9F1010F01DA4FF001095E
:101010000020B9F1110F0090484601DD112300E0D6
:1010200003460AAA01A90CA8FFF7ABFEDDE90C7084
:101030004D4600268346207800070AD4AB4500DAE7
:101040005D4601A8012D04DD411911F8011C30296C
:1010500007D04F4502DA17F1040F04DA0120824667
:101060000FE06D1EEEE7002F02DCED1B3E4403E0B7
:10107000781CA84200DD7D1CB81B00F1010A4FF06E
:1010800000472078000703D4AA4501DB4FF0FF3A60
:101090000021B7F1004F0DF143088DF8431024D023
:1010A00002202B23002F01DA7F422D230A21021E6A
:1010B000A0F1010000DC5FB197FBF1FC97FBF1F2BE
:1010C00001FB1C7C17460CF1300C08F801CDEEE753
:1010D000A8F1010003702188090501D5452100E030
:1010E0006521A0F1010800F8011C09980FA9A1EBE6
:1010F0000807FF1D00B10120411901EBEA70A16949
:101100003844081A401EA0612078C00602D4204648
:10111000FFF7BBFA099828B1D4E901219047206A6A
:10112000401C20622078C00622D52046FFF7ADFA89
:101130001EE0002E04DBB34502DD01A8805D00E067
:101140003020D4E901219047206A401C2062761C9F
:10115000AAF101005FEA000A0AD100F019FAC0689A
:101160000168405CD4E901219047206A401C20625C
:10117000281EA5F10105DCDC07E0D4E9012118F8FF
:10118000010B9047206A401C2062381EA7F101071E
:10119000F3DC2046FFF78FFA032011B041E6000090
:1011A0002DE9F04F04460D46D21D22F0070089B00C
:1011B000D0E900974846394604F051FE0246F80F40
:1011C00001D02D2307E02068810701D52B2302E001
:1011D000202101EAC0038DF820300BB1012000E08E
:1011E0000020032A824601D0072A04DB2946204634
:1011F00000F0D2F93FE12078800601D40D2500E00F
:10120000E569C7F30A560D2D49DA00214FEA175B4D
:1012100008464FF00000002F00F4400007DA00EB12
:1012200080004FF4400100EBD07001EA60008115AE
:10123000012901DD4FF0FF3100224FEA850CBCF19E
:10124000180F06D31346ACF118004FF08052C2407D
:1012500003E04FF4801323FA0CF30CF10C0CBCF1F7
:10126000200F04D3ACF1200C09FA0CF001E007FACE
:101270000CF000294FF0004801DD18B90FE00ED145
:1012800040450CD319EB02095F4121B9404502D119
:101290009F4329EA0209BBEB175F00D0761C208828
:1012A000000502D57B48784402E07A487844193832
:1012B00008AA302302F80A30037C0AF10101002E4B
:1012C0000AF1020A53546A4602DC4FF0300101E091
:1012D0004FF031014FF001088DF8001002D0A6F256
:1012E000FF3603E059EA470100D06B4E002D02DCC7
:1012F0002178090704D54FF002082E218DF801103E
:10130000C44600210BE0C7F303433F01C35C491C03
:101310006D1E02F80830052908F1010801DA002DD8
:10132000F1DC00210CE000EB1973491C1B786D1EE9
:10133000082902F808304FEA091908F1010801DA12
:10134000002DF0DC21688B0602D516E0A8F101081B
:10135000E04505DD02EB080313F8013C302BF5D026
:10136000B8F1000F09DD02EB080313F8013C2E2B46
:1013700003D1090701D4A8F10108002D05DD3E21A4
:1013800002F808106D1E08F10108407C002E02F8DA
:10139000080008F1010804DA2D20764202F808005E
:1013A00002E02B2002F808000A214FF47A708642EE
:1013B00008F101080BDB96FBF0F3303302F808303C
:1013C00096FBF0F308F1010800FB136601E0642EC0
:1013D0000CDB642096FBF0F3303302F8083096FB08
:1013E000F0F308F1010800FB136601E00A2E06DBAA
:1013F00096FBF1F0303002F8080008F1010896FB86
:10140000F1F001FB1060303002F80800A16908F12A
:10141000010808EB050202EB0A00081AA061207817
:10142000C00602D42046FFF730F9216A08AE01EB6E
:101430000A00206204E0D4E9012116F8010B90476C
:10144000BAF1010AF7D22078C00602D52046FFF78C
:101450001CF96E4609E016F8010B3E280FD0D4E9BE
:1014600001219047206A401C2062B8F10108F2D2A5
:101470002046FFF720F909B00320BDE8F08F206A6D
:101480002844206203E0D4E90121302090476D1EFA
:10149000EBD3F8E74265000002FCFFFF10B543699B
:1014A00013B1AFF3008001E0FFF728F9012010BD70
:1014B000127800F124010A7000224A700122EDE73F
:1014C00011684FF0FF32E9E710B5436913B1AFF38C
:1014D000008001E0FFF7B2F9012010BD128800F191
:1014E000240182840022C2840122EDE711684FF0BA
:1014F000FF32E9E770B516460C46054600F040F8A5
:10150000036893F80101012806D0FF2C0FD8185D5D
:1015100068B101202C7070BDD3F807013246214616
:1015200003F2071303442846BDE8704018474FF004
:10153000FF3070BD754600F0EBF8AE460500694619
:10154000534620F00700854618B020B5FEF750FF3F
:10155000BDE820404FF000064FF000074FF00008B4
:101560004FF0000B21F00701AC46ACE8C009ACE835
:10157000C009ACE8C009ACE8C0098D46704700005E
:1015800010B500F005F8001D10BD00BF6D61000032
:10159000004870476C6700202DE9F0411F46044663
:1015A00003260168072A01F4006004DB08B116A5D0
:1015B00005E016A503E008B115A500E015A521F08A
:1015C00010002060A069C01EA0610FB1401EA06184
:1015D0002046FFF75AF84FB1D4E901213846904729
:1015E000206A401C2062C01C206206E0206AFAE7E4
:1015F000D4E9012115F8010B9047761EF8D2204658
:10160000FFF759F8BDE8F0814E414E006E616E0063
:10161000494E4600696E66002DE9F0478146164640
:101620008AB0354878440DC88DE80D0032487844BA
:10163000801C03AC0DC884E80D0041F69B300844C3
:10164000372190FBF1F290FBF1F5A5F1800501FB4C
:1016500012041B3C02D56442012000E00020DFF8A8
:1016600098A080460027FA44AAF1BE0A0EE0E007DF
:101670000AD03246684607EB470101230AEB810195
:1016800000F022FB8DE8070064107F1C002CEED1D7
:10169000194F7F44AE3F19E0E80715D007EB04105F
:1016A0000DF1180A90E80E008AE80E00C068F042BA
:1016B00001D1981908903246012306A903A800F029
:1016C00003FB03AB83E807006D10641C002DE3D11E
:1016D0004FF0010332466946B8F1000F03A802D06B
:1016E00000F0DDFA01E000F0EFFAC9E90001C9F805
:1016F00008200AB0BDE8F0875462000010B5044627
:10170000AFF300802046BDE81040FEF7FCBD0000AE
:10171000004870474C6700204FF0013C50F8042B04
:1017200051F8043B9A4221D1A2EB0C03934313EAF4
:10173000CC1317D150F8042B51F8043B9A4215D121
:10174000A2EB0C03934313EACC130BD150F8042BF8
:1017500051F8043B9A4209D1A2EB0C03934313EADC
:10176000CC13DBD04FF00000704700BFD01A01BA95
:10177000B1FA81F101F0180122FA01F0CB40C1F178
:101780002001DBB2C0B2C01A2CFA01F3D11A914386
:1017900011EAC311E6D1704701491820ABBEFEE73C
:1017A0002600020070475FEA400C08BF91F0000F6E
:1017B0004FEA8C234FEAC12243EA51514FEA1C50B1
:1017C00018BF00F5F0404FEA300018BF41F000416B
:1017D0005FEA6C5C00F02980BCF1FF3F08BF40F07D
:1017E00080407047130C06BF12044FF0100C4FF0EE
:1017F000000C130E04BF12020CF1080C130F04BFEF
:1018000012010CF1040C930F04BF92000CF1020CB6
:10181000D30F04BF52000CF1010C11464FF000022F
:10182000A0F11F00A0EB0C00704711F0004F08BFA3
:10183000704731F000413FF4D5AF0B0C06BF0904EF
:101840004FF0100C4FF0000C0B0E04BF09020CF10E
:10185000080C0B0F04BF09010CF1040C8B0F04BF23
:1018600089000CF1020CCB0F04BF49000CF1010CF4
:10187000CCF12003A0EB0C0022FA03F302FA0CF2E5
:1018800041EA030100F10100704720F07F4C80EA3B
:10189000030023F07F47ACEB070303F57C5300F014
:1018A000004003F1FF032DE980494FEA154B09B4CD
:1018B0004FEA144325EA0B4E24EA03480FF20426AC
:1018C00006EB132749083E785FEA320203FB0667FE
:1018D000C7F5000707FB06F64FEA54374FEAD6462E
:1018E00006F1020607FB066CCCF1005C4FEA1C47D0
:1018F0002CEA074C07FB06F40CFB06F504EB154637
:101900004FEA961634BF00204FF000404FEAD1371F
:1019100006FB07FC4FEA1C4C0CFB0BF7D21B03FB2E
:101920000CF761EB07010CFB0EF7B0EB074072EB15
:1019300017420CFB08F734BFA2EB0742B2EB074299
:1019400061EB17414FEA0C444FEA910706FB07FC95
:101950004FEA1C4C0CFB0BF7B0EBC74072EB573255
:1019600003FB0CF734BFA2EBC742B2EBC74261EBFB
:1019700057310CFB0EF7B0EBC70072EB57720CFB44
:1019800008F734BFA2EBC702B2EBC70261EB577195
:10199000039F4FEA816141EA921104EBCC044FEAC4
:1019A000D1374FEA826206FB07FC42EA90124FEA07
:1019B00080604FEA1C4C0CFB0BF7D21B03FB0CF7AF
:1019C00061EB07010CFB0EF7B0EB074072EB17421F
:1019D0000CFB08F734BFA2EB0742B2EB074261EB06
:1019E00017414FEA8C554FEA910704EB9C2406FB04
:1019F00007FC4FEA1C4C0CFB0BF7B0EBC74072EB3B
:101A0000573203FB0CF734BFA2EBC742B2EBC7421D
:101A100061EB57310CFB0EF7B0EBC70072EB57725E
:101A20000CFB08F734BFA2EBC702B2EBC70261EBB5
:101A3000577115EB4C254FEA816141EA92114FEA4B
:101A400082624FEAD13742EA901206FB07FC44F16A
:101A500000044FEA80604FEA1C4C0CFB0BF7D21BD2
:101A600003FB0CF761EB07010CFB0EF7B0EB074033
:101A700072EB17420CFB08F734BFA2EB0742B2EB44
:101A8000074261EB174115EB1C154FEA813141EA22
:101A900092414FEA823242EA90424FEA80304FEA66
:101AA0000C7644F1000448EA03434EEA0B484FF039
:101AB000000EB2EB080C71EB030724BF62463946F7
:101AC0004EEB0E0E4FF0000B0018524149414BEB0C
:101AD0000B0BB2EB080C71EB03077BF1000B24BF7F
:101AE000624639464EEB0E0E4FF0000B0018524185
:101AF00049414BEB0B0BB2EB080C71EB03077BF18D
:101B0000000B24BF624639464EEB0E0E51EA020727
:101B100018BF46F0010616EB0E7655F1000254F19F
:101B2000000103D5BDE88901BDE80088BDE8890151
:101B3000BDE80048B619524141EB0101A3F1010390
:101B4000704780807F7E7D7C7B7A7978777676752A
:101B50007473727171706F6E6E6D6C6C6B6A6A69A2
:101B60006868676666656464636362616160605F3C
:101B70005F5E5E5D5D5C5C5B5B5A5A5959585857B5
:101B8000575656555555545453535252525151501D
:101B900050504F4F4F4E4E4D4D4D4C4C4C4B4B4B70
:101BA0004A4A4A49494948484847474747464646B6
:101BB00045454544444444434343434242424241F1
:101BC0004141002B9C4630D477002BD01CB54FEA06
:101BD000370703B44FF010004FF01001BAF1000FB7
:101BE00006D0BCF1000FDCBF40F0080040F0080157
:101BF0004FF000000FBCBDE810400BF1010BBBF132
:101C0000010F08BF5FEA170722BF12F1010211F1AD
:101C100001014FF0004143F1000300F0004043EAAE
:101C200000007047F9D35708D0E746EA064613F19B
:101C3000400F4FEA16461FDD13F1200FDFBF16439A
:101C40000A46002120335B42BED0C3F1200746EA9A
:101C5000064602FA07F74FEA164646EA0706C3F1B8
:101C6000200722FA03F201FA07F721FA03F14FF0F5
:101C7000000342EA0702A7E746EA020646EA0646EA
:101C80004FEA164646EA0106BCBF46EA0646360C4F
:101C90004FF000034FF000024FF0000194E72DE9F0
:101CA000804C9A46934670B491E8380007C831EAF0
:101CB000400C48BF34EA430C03D5FFF7E6FDFFF7BD
:101CC00080FFF0BCBDE8008C2DE9804C9A4693461D
:101CD00070B491E8380007C810F0804F08BF13F0C7
:101CE000804F03D100F005F8FFF76BFFF0BCBDE8B3
:101CF000008C20F07F4780EA030023F07F4C07EB45
:101D00000C03A3F57C5300F00040A3F1FE0392F016
:101D1000000F00F0B38095F0000F00F077802DE900
:101D200001494FEA11404FEA144621EA004800FBFE
:101D300006FC24EA064708FB06F607FB08F800FB4A
:101D400007F718EB06484CEB164C4FEA124B18EB12
:101D500007484FEA15464CEB174022EA0B4E0BFBA7
:101D600006FC25EA06470EFB06F607FB0EFE0BFBFC
:101D700007F71EEB064E4CEB164C4FF000061EEB21
:101D8000074E4CEB174B18EB0B0840F1000018EB1B
:101D90000E0B58EB000840F100008F1A4FF00001C5
:101DA0003CBFC943661B14BFB5EB040C00213CBF0C
:101DB000C943F61B4FEA17444EEA8E0E27EA044544
:101DC0004FEA1C4704FB07622CEA074C05FB07F7A8
:101DD0000CFB05F604FB0CFC16EB074642EB174226
:101DE00016EB0C4642EB1C421BEB060658EB0202BC
:101DF000414146EA9E0601D5BDE80189B619524126
:101E000041EB0101A3F10103BDE801894FEA14454B
:101E10004FEA114724EA054621EA074C05FB07F47F
:101E200006FB07F70CFB06F105FB0CFC11EB074169
:101E300044EB17444FEA124711EB0C4144EB1C44AE
:101E400022EA074C05FB07F206FB07F70CFB06F638
:101E500005FB0CFC16EB074642EB174216EB0C4653
:101E600042EB1C456A1854F1000148BF7047B6198F
:101E7000524141EB0101A3F10103704795F0000FBE
:101E800037D04FEA11424FEA144721EA024624EACA
:101E9000074C02FB07F106FB07F70CFB06F402FBFD
:101EA0000CFC14EB074441EB17414FEA154714EBC8
:101EB0000C4441EB1C4125EA074C02FB07F506FBED
:101EC00007F70CFB06F602FB0CFC16EB074645EB8E
:101ED000174516EB0C4645EB1C42121951F1000157
:101EE00048BF7047B619524141EB0101A3F101030C
:101EF00070474FEA14454FEA114724EA054621EAA4
:101F0000074C05FB07F106FB07F70CFB06F24FF049
:101F1000000605FB0CFC12EB074241EB174112EBEC
:101F20000C4251EB1C4148BF7047921841EB010134
:101F3000A3F101037047FEE70020704700207047BF
:101F400010B500220449054802F08AFB0449034801
:101F500002F079FB002010BD4C0F00207002002021
:101F60004C07002010B50146034802F06CFB024804
:101F700002F042FB002010BD7002002000207047DC
:101F8000094A10B5D2F8BC22D2F814220AB10120B5
:101F900010BD0A460146044802F062FBBDE810404D
:101FA000014802F0D7BB000070020020704772B6F3
:101FB000FEE7000070B5044600F014F90546601C09
:101FC00002D004480078044400F00CF9401BA04201
:101FD000FAD370BD6C0000202DE9F84FDFF8BCA1EA
:101FE0000022012503264FF00F090AF1040BAAF184
:101FF000040E00BF0B6805FA02F42340A34270D11F
:102000000F7907F00307012F01D0022F16D187683F
:102010004FEA420806FA08FC27EA0C07D1F80CC080
:102020000CFA08FC4CEA070CC0F808C04768A74344
:102030000C79C4F3001494403C4344600C79E443AD
:10204000A4070AD0C4684FEA420C06FA0CF7BC4356
:102050008F6807FA0CF72743C7600C7904F0030474
:10206000022C12D1D40800EB840CDCF82040570776
:10207000FF0E09FA07F824EA0804D1F8108008FADC
:1020800007F848EA0408CCF8208004684FEA420CBC
:1020900006FA0CF7BC430F7907F0030707FA0CF7B1
:1020A000274307604C6814F4403F70D03C4C2768CD
:1020B00047F480472760246822F0030704F4804433
:1020C0000094384C07EB040CDCF8084897074FEAFB
:1020D000177809FA08F7BC43334FB84202D10027FA
:1020E00024E054E0314FB84201D101271EE0304FC7
:1020F000B84201D1022719E02E4FB84201D103277F
:1021000014E02D4FB84201D104270FE02B4FB84205
:1021100001D105270AE02A4FB84201D1062705E080
:10212000284FB84201D1072700E0082707FA08F72F
:102130002743CCF80878DAF800405746D1F804C0B5
:102140009C435FEACC2C00D51C433C60DBF800408C
:102150005F46D1F804C09C435FEA8C2C00D51C4339
:102160003C60DEF800407746D1F804C09C435FEA4B
:102170008C3C00D51C433C60084F083F3C68D1F8BC
:1021800004C09C435FEACC3C00D51C433C60521C1D
:10219000102AFFF42FAFBDE8F88F0000083C014083
:1021A0004438024000300140000002400004024078
:1021B00000080240000C02400010024000140240DF
:1021C00000180240001C0240426921EA02030A4052
:1021D00043EA0241816170470AB181617047090495
:1021E000FBE7000001488068704700006C00002099
:1021F00070B5040025D094F83D00002520B984F87E
:102200003C50204600F0B8F8242084F83D002068B7
:10221000016821F0010101602068016841F400417A
:1022200001602068016821F40041016000F09EFF18
:102230004D4A6168914201D84C4900E04C498842BE
:1022400001D2012070BD4B492368B0FBF1F15E68FB
:1022500026F03F060E435E606368934206D94FF452
:10226000967359434FF47A73B1FBF3F12368491C19
:102270001E6A26F03F06314319626168914210D808
:102280004900401EB0FBF1F2521CC2F30B02042ABB
:1022900001D2042022E0B0FBF1F0401CC0F30B009F
:1022A0001CE0A268F2B301EBC10303EB0116431E6D
:1022B000B3FBF6F35B1C43F480431B0549D092B398
:1022C00001EBC10202EB0111401EB0FBF1F0401C1A
:1022D000C0F30B0040F4804040F400402168CA691C
:1022E0004CF6FF739A431043C861D4E907100143C9
:1022F0002068026822F0C00211430160D4E90301A2
:1023000001432068826848F2FF339A431143816099
:10231000D4E9050108432168CA6822F0FF0210438E
:10232000C86001E00EE016E02068016841F001019C
:1023300001602564202084F83D00256384F83E5028
:10234000002070BD01EB4106431EB3FBF6F35B1C9E
:10235000B3E70120C2E701EB4101401EB0FBF1F001
:10236000401CC0F30B00B7E7A086010080841E006C
:1023700000093D0040420F0010B586B0044614210C
:102380006846FEF758F914492068884221D113485D
:102390000021026842F002020260006800F00200C0
:1023A00005904FF4407000901220CDE90101032008
:1023B00003900420049069460948FFF70DFE074882
:1023C0001030016841F400110160006800F4001051
:1023D000059006B010BD00000054004030380240A7
:1023E000000402400248816802781144816070470D
:1023F0006C0000200B4810B5016841F400710160C9
:10240000016841F480610160016841F480710160FC
:10241000032000F09FF80F2000F006F800F050F8BD
:10242000002010BD003C024030B50546204887B072
:102430000024016841F001010160006806A900F074
:102440000100009001A800F06BFE0498B0B100F00C
:102450008DFE400017494FF08042B0FBF1F1164865
:10246000491E026040F2E732C0E90324C0E90114CA
:10247000846101F0E5F8040003D015E000F076FE79
:10248000E8E70D4801F01EF904000DD11C2000F012
:1024900033F8102D07D2002229461C2000F03AF80C
:1024A0000648056000E0012407B0204630BD00006A
:1024B0004038024040420F002802002070000020F7
:1024C0000C4882B0016841F480410160006800F46A
:1024D000804000900748001F016841F08051016072
:1024E0000068002200F0805000900F21901E02B082
:1024F00000F010B844380240002809DB00F01F0249
:10250000012191404009800000F1E020C0F8001155
:1025100070470000F0B40E4B1B680C46C3F3022357
:10252000C3F10705042D00D90425191D072901D27F
:10253000002300E0DB1E012606FA05F1491E2140BA
:1025400099409E40761E16403143F0BC03F09FBC7C
:102550000CED00E0064900F0070208684FF6FF03A3
:10256000184040EA0220034A104308607047000008
:102570000CED00E00000FA057047006841620020A1
:102580007047F0B50368586A39B19C6A4FF4827697
:1025900000EB144400204D1E0AE040EA024098621D
:1025A0000FE006EB8007DF59401C04EB1744C0B274
:1025B000A842F6D344EA02404FF4807202EB810154
:1025C00058500020F0BDD0F8080502F049BB01EBDF
:1025D000C10200EB8202D0F80805D26C02F09EBA6C
:1025E00001EBC10200EB8202D0F80805D2F88C2280
:1025F00002F0EFBAD0F8080502F034BB0A0601F089
:102600000F0101EBC10100EB810101D53C3101E07B
:1026100001F51F71006803F069BA70B504460B0636
:1026200001F00F0000EBC00104EB81014FF001024B
:102630004FF0000503D581F83D203C3103E081F8DF
:102640007D5201F51F71087094F8BC04012808D070
:1026500084F8BC24206802F003FF84F8BC540020F6
:1026600070BD022070BD70B5044601F00F006268B5
:10267000904201D9012070BD0B0601F00F0101EB62
:10268000C10104EB81014FF001024FF0000503D5B9
:1026900081F83D203C3103E081F87D5201F51F7146
:1026A0008D70087094F8BC04012808D084F8BC240C
:1026B000206803F0D1F884F8BC54002070BD0220DB
:1026C00070BD01F00F0101EBC10100EB8100D0F8FA
:1026D0009C0270472DE9F04104460F0601F00F00FF
:1026E00000EBC00104EB81014FF001064FF0000543
:1026F00003D581F83D603C3103E081F87D5201F55E
:102700001F710870CA600B714A7802B10881022BF0
:1027100000D14D7194F8BC04012809D084F8BC6440
:10272000206802F0F5FD284684F8BC54BDE8F0812D
:102730000220FBE770B50C4601F00F0505EBC50163
:1027400000EB8101C1F89432C1F88C220023C1F85A
:102750009C3281F87D3281F87C52036901F51F714A
:10276000012B00D14A612207027C006803D003F0EC
:10277000CBF8002070BD02F0B5FFFAE770B5044653
:102780000D4601F00F006168884201D9012070BD3B
:1027900029064FF000064FF0010207D500EBC001FB
:1027A00004EB810181F83D203C3107E005EBC501D8
:1027B00004EB810181F87D6201F51F718A70087058
:1027C00094F8BC04012807D084F8BC24206803F0E6
:1027D0006FF8280702D007E0022070BD217C04F2C8
:1027E000C442206803F00CF884F8BC64002070BD7B
:1027F00070B50C4601F00F0505EBC50100EB81013A
:102800004B65CA640023CB65012381F83D3001F894
:102810003C5F0369012B00D14A612207027C0068FA
:1028200003D003F071F8002070BD02F05BFFFAE7FF
:102830002DE9FC5F05680446284603F0F8F90028F6
:102840007DD1206803F01FFA002878D0D5F8080859
:10285000C0F30D20C4F8FC04206803F014FA8007CC
:1028600004D52068416901F002014161206803F04C
:102870000AFAC10604F2C440009034D52068816988
:1028800021F0100181612F6A07F00F0000EBC000FA
:1028900004EB8006C7F3434006F51F76022802D0FA
:1028A000062811D01AE047F6F070074216D0C7F399
:1028B0000A1217462846316903F0E9F930693844AD
:1028C0003061306A384408E008222846009903F055
:1028D000DEF9306AC7F30A11084430622068816962
:1028E00041F010018161206803F0CDF900034FF041
:1028F000080B4FF0000A4FF001097CD50026206834
:1029000003F0A0F9074674E0F80770D0F1B2206830
:1029100003F0B1F98046C00707D005EB4611C1F8B6
:10292000089B3146204601F037FA5FEA087024D54B
:1029300005EB4611C1F808BB2068016C00E025E2F8
:1029400000EB46100191D0F8082BFC4B994205D9B9
:10295000110403D54FF40041C0F8081B204600F0D5
:1029600005FBF6490198884207D92069012804D15E
:1029700020680121009A02F043FF5FEAC86004D595
:1029800005EB46111020C1F8080B5FEA88701DD5D1
:102990006869000605D5D5F8040840F48061C5F8DB
:1029A000041806EBC60004EB800090F87F1200F5D7
:1029B0001F70012905D180F803A0F1B2204600F074
:1029C000EBF905EB46110220C1F8080B5FEA8860BD
:1029D00004D505EB46102021C0F8081B5FEA8840AB
:1029E00005D505EB46104FF40051C0F8081B7F08D1
:1029F000761C002F88D1206803F045F940036FD57D
:102A0000206803F018F90746002667E0F80763D04E
:102A1000F1B2206803F01DF98046C00723D006F00C
:102A20000F0209FA02F0D5F834288243C5F8342899
:102A300005EB4610C0F80899206901280FD106EB74
:102A4000C60004EB8000D0E912211144C16436B9FC
:102A5000606D20B920680121009A02F0D1FEF1B228
:102A60002046FFF7B4FD5FEA087003D505EB461179
:102A7000C1F808B95FEAC86004D505EB461110201B
:102A8000C1F808095FEA486004D505EB461040210B
:102A9000C0F808195FEA887017D53146284603F058
:102AA00099F806EBC60004EB800090F83F103C302C
:102AB000012905D180F803A0F1B2204600F068F9A1
:102AC00005EB46110220C1F808095FEA086003D54A
:102AD0003146204601F0C6F97F08761C002F95D1BB
:102AE000206803F0D0F8002811DAD5F8040820F0A7
:102AF0000101C5F8041894F8F40401282BD02046ED
:102B000000F018FA2068416901F000414161206835
:102B100003F0B9F800050BD5D5F80808C00702D0B6
:102B2000204600F04BFA2068416901F400614161E0
:102B3000206803F0A8F8C00466D5D5F8040820F092
:102B40000100C5F804081021206803F043F80021B3
:102B50004FF67F321FE084F8F4A400212046FFF7EF
:102B60000BFDCFE705EB4110C0F80829D0F800397C
:102B700023F40013C0F80039C0F8082BD0F8003B4C
:102B800023F40013C0F8003BD0F8003B43F000638F
:102B9000C0F8003B491C60688842E3D8D5F81C089F
:102BA00040F00111C5F81C18206B002828460DD0F4
:102BB000D0F8840840F00B01C5F88418D5F8440813
:102BC00040F00B012846C5F844180DE0D0F8140871
:102BD00042F22B010843C5F81408D5F8100840F05C
:102BE0000B012846C5F81018D0F8000820F4FE6143
:102BF000C5F80018217C2068009A02F001FE2068C8
:102C0000416901F480514161206803F03CF880047F
:102C100015D5206802F0BCFB206802F0FBFFE060E5
:102C200000F09EFA0146227B206803F08FF82046D0
:102C300000F06AF92068416901F40051416120689F
:102C400003F021F8000707D5204600F077F9206847
:102C5000416901F008014161206803F014F80006A1
:102C600016D5A86920F08000A86101260DE000BFFC
:102C700006EBC60004EB800090F87F02012803D128
:102C8000F1B22046FFF7BAFC761C6068B042EFD87C
:102C9000206802F0F8FFC00221D501264F4616E059
:102CA00005EB4610D0F8001906EBC60004EB8000D7
:102CB00090F84020012A09D1002907DA80F83F70F6
:102CC000F0B240F080012046FFF798FC761C606867
:102CD000B042E5D82068416901F480114161206863
:102CE00002F0D1FF800234D501204B4629E000BF1D
:102CF00005EB4011D1F8001B00EBC00204EB82068B
:102D000096F88022012A1BD1002919DA94F8FC24B4
:102D100001F4803102F00102914211D186F87F3234
:102D2000A96941F08002AA616969090608D4D5F849
:102D3000040840F40070C5F8040805E00A30544F58
:102D4000401C61688142D3D82068416901F40011B8
:102D50004161206802F097FF400007D52046FFF749
:102D600032FC2068416901F080414161206802F035
:102D70008AFF40070AD520684568680702D52046C3
:102D8000FFF738FC2068416829434160BDE8FC9F9B
:102D9000D0F8080501F0BABFD0F8080501F0CABFA5
:102DA0002DE9F0418AB0040005D094F8BD042668EE
:102DB000002520B108E001200AB0BDE8F08184F8C8
:102DC000BC54204600F05EF8032084F8BD04F06B8C
:102DD000C00500D42561206802F07EFC04F11001DA
:102DE000282288466846FDF7ECFB94E80F0002F0C5
:102DF000DDFA0226C8BB0021206802F067FF002030
:102E000001270EE000EBC00104EB810181F83D7069
:102E100001F83C0F08810D71CD600D61401CC0B2FE
:102E20008D6161688142EDD8002011E000EBC001A6
:102E300004EB810181F87D5281F87C0281F8805297
:102E4000C1F88852C1F88C52401CC0B2C1F89452EB
:102E500061688142EAD8282241466846FDF7B1FB05
:102E600094E80F0002F07EFB10B184F8BD64A2E785
:102E700084F8385084F8BD74206802F065FB0020A7
:102E80009AE7000010B586B0044614216846FDF7A5
:102E9000D2FB2068B0F1A04F2FD119480021026861
:102EA00042F001020260006800F0010005904FF45A
:102EB000C05000900220CDE90101032003900A20B8
:102EC000049069460F48FFF787F80D48001D016818
:102ED00041F0800101600A481430016841F48041EA
:102EE00001600068002200F4804005900521432025
:102EF000FFF710FB4320FFF7FFFA06B010BD0000FC
:102F0000303802400000024070B50446C068012518
:102F100070B1022801D0FFF74AF82946D4F8080515
:102F200001F076FFD4F80805BDE8704001F02BBF32
:102F30000025F2E7D0F8080501F053BFD0F80805E6
:102F400001F059BF10B5044690F8BC0401280BD01D
:102F5000012084F8BC0484F83810206802F0E4FEF4
:102F6000002084F8BC0410BD022010BDD0F8082554
:102F700000F2C441104601F057BF10B50446006886
:102F800094F8BC14012906D0012184F8BC14A16A6C
:102F9000012902D008E0022010BDA169012903D057
:102FA000816B41F480318163206802F0EEFD20687E
:102FB00002F0BCFA002084F8BC0410BD10B5044631
:102FC000D0F8080501F072FF2068D0F8001E41F02B
:102FD0000101C0F8001E206A002804D002480168E0
:102FE00041F00601016010BD10ED00E02DE9F04751
:102FF0000E46050065D0DFF81481D8F80000F7B25E
:1030000000F00700B04207D288F80070D8F800003E
:1030100000F00700B04254D128683D4C810712D51A
:10302000400703D5206840F4E0502060287800076E
:1030300003D5206840F4604020602068A96820F033
:10304000F000084320602878C0072DD03049686818
:103050000839012812D0022813D0032811D009689A
:10306000890700292DDA216821F00301014321603D
:10307000FFF7B8F8814641F2883A0EE00968890303
:10308000EFE709688901ECE7FFF7ACF8A0EB09016D
:10309000514502D90320BDE8F0872068696800F037
:1030A0000C00B0EB810FEFD1D8F80010404601F0D2
:1030B0000701B14207D90770006800F00700B0426D
:1030C00001D00120E7E72878400705D52068E968A6
:1030D00020F4E050084320602878000706D52068D7
:1030E000296920F4604040EAC100206000F04EF8F9
:1030F0002168084AC1F30311515CC84006490860C1
:1031000006480068FFF790F90020C4E7003C024041
:103110000838024080770008780000207000002006
:103120000F2202600C4A136803F003034360136824
:1031300003F0F0038360136803F4E053C360126884
:103140004FF4E05303EAD20202610448006800F041
:10315000070008607047000008380240003C024049
:1031600001480068704700007800002004480549C5
:1031700000680968044AC1F38221515CC840704765
:10318000780000200838024090770008154810B5F4
:10319000006810F00C02144813D04110042A0FD01C
:1031A000082A0ED10F4C241F2268236802F03F0228
:1031B0005B0207D52068C0F38810A0FB010106E080
:1031C000084610BD2168C1F38811A1FB000100234E
:1031D000FDF720F92168C1F30141491C4900B0FB0A
:1031E000F1F010BD083802400024F4002DE9F84F3A
:1031F00004006ED02078DFF84C93C007A9F10405D5
:103200004AD009F104000168C1F38101012908D005
:103210000068C0F3810002280AD1D9F800004002FA
:1032200006D52868800337D560680028E1D033E0F0
:103230006068B0F5803F10D0B0F5A02F286810D09E
:1032400020F480302860286820F48020286060689E
:10325000A8B1FEF7C7FF06460DE0286840F48030AD
:10326000F4E740F480202860F7E700BFFEF7BAFFDC
:10327000801B642873D828688003F7D50CE0FEF71C
:10328000B1FF064605E000BFFEF7ACFF801B6428D7
:10329000F0D828688003F7D42078DFF8AC82800764
:1032A0004FF0000A3ED5A748001D016811F00C0F31
:1032B00008D00068C0F3810002280BD1D9F80000C3
:1032C000400207D42868800716D5E068012800D19D
:1032D00012E033E1E068B8B10120C8F80000FEF761
:1032E00081FF064605E000BFFEF77CFF801B022839
:1032F000C0D828688007F7D52868216920F0F80031
:1033000040EAC10028600DE0C8F800A0FEF76AFF9F
:10331000064604E0FEF766FF801B02281FD82868D7
:103320008007F7D42078000722D5864F8748616947
:10333000703771B101210160FEF754FF064604E0C9
:10334000FEF750FF801B022809D838688007F7D5A0
:103350000EE0C0F800A0FEF745FF064605E082E05B
:10336000FEF740FF801B02287DD838688007F7D41D
:103370002078400768D5DFF8CCB100270BF13C0B73
:10338000DBF80000C0000BD4DBF8001041F08051E6
:10339000CBF80010DBF80000012700F0805000900F
:1033A0006B4E3068C00510D4306840F480703060D7
:1033B000FEF718FF009005E0FEF714FF0099401A91
:1033C000022850D83068C005F6D55E4EA0686C362D
:1033D00001280FD00528306810D020F0010030609F
:1033E000306820F004003060A068B8B1FEF7FAFE43
:1033F00000900FE0306840F00100F4E740F0040076
:103400003060F7E7FEF7EEFE0099411A41F288308E
:10341000814266D830688007F4D50EE0FEF7E2FE00
:10342000009007E0FEF7DEFE0099411A41F2883075
:10343000814256D830688007F4D42FB1DBF80010F1
:1034400021F08051CBF80010A069C8B33D49091D97
:103450000968C1F3810102294AD00228504607D0E9
:10346000C8F8600000E03CE0FEF7BCFE04463BE02C
:103470004746C8F86000FEF7B5FE064605E000BF07
:10348000FEF7B0FE801B02282BD828688001F7D4F5
:10349000D4E907010843A16A2E4A490802EB014119
:1034A000626A41EA8211084394F82C1040EA0161F3
:1034B000C9F8001001203866FEF794FE044606E0C5
:1034C0003EE000BFFEF78EFE001B022809D82868E8
:1034D0008001F7D534E000BFFEF784FE001B022810
:1034E00002D90320BDE8F88F28688001F4D427E0D2
:1034F0000128F7D0D9F80000E26900F48001914278
:103500001CD1226A00F03F01914217D147F6C071E9
:10351000626A0140B1EB821F10D1A26A4FF0FF3303
:1035200000F4403103EB5202B1EB024F06D194F8A4
:103530002C1000F07060B0EB016F01D00120D1E7DA
:103540000020CFE70438024000004742800E474287
:10355000007000400000FFFF7047704710B590F802
:103560003C20012A22D0012280F83C20CA688C68C5
:1035700022F4407222434C6822F4806222430C6899
:1035800022F4006222430C6922F4805222434C69E7
:1035900022F400522243C969002322F480420A43E4
:1035A00001684A6480F83C30002010BD022010BD44
:1035B00070B590F83C20012A32D0012480F83C40BC
:1035C000022280F83D2003685A689D6822F0700648
:1035D0000A6832435A60134B02689A4214D0B2F11F
:1035E000804F11D0104B9A420ED0104B9A420BD004
:1035F0000F4B9A4208D00F4B9A4205D00E4B9A427D
:1036000002D00E4B9A4204D1496825F08003194339
:10361000916080F83D40002180F83C10084670BD64
:10362000022070BD0000014000040040000800407E
:10363000000C004000040140004001400018004020
:1036400010B5040003D094F83D0010B107E001204C
:1036500010BD002084F83C00204600F01FF8022036
:1036600084F83D00211D206800F0C0FC012084F892
:10367000460084F83E0084F83F0084F8400084F857
:10368000410084F8420084F8430084F8440084F840
:10369000450084F83D00002010BD000008B500681A
:1036A0000649884208D10648016841F001010160DD
:1036B000006800F00100009008BD0000000001401B
:1036C0004438024090F83D10012901D00120704794
:1036D000022180F83D100168CA6842F00102CA6008
:1036E00000681149884214D0B0F1804F11D00F49C1
:1036F00088420ED00E4988420BD00E49884208D02D
:103700000D49884205D00D49884202D00C498842B3
:1037100004D1816801F00701062903D0016841F056
:1037200001010160002070470000014000040040DA
:1037300000080040000C004000040140004001402F
:103740000018004070B5044690F83C0000250128A0
:1037500017D0012684F83C60022084F83D002068E0
:10376000826822F0770222F47F4282600868502843
:1037700038D00DDC20284FD005DC90B3102811D1B3
:103780004AE0022070BD302846D040280AD13BE0F4
:1037900060282FD070280DD0B0F5805F03D0B0F531
:1037A000005F12D0012584F83D60002084F83C00C1
:1037B000284670BDCB68D1E90121206800F07AFC71
:1037C0002068816841F0770109E0CB68D1E90121E7
:1037D000206800F06FFC2068816841F480418160BE
:1037E000E1E719E0CA684968206800F037FD502118
:1037F000206806E0CA684968206800F040FD602142
:10380000206800F061FCCEE7CA684968206800F0D3
:1038100025FD40212068F4E7226801461046F0E7C4
:10382000704770B50446006801694FF00005C94350
:10383000890715D4C168C943890711D4E91E0161FC
:1038400001202077206880698007204602D0FFF79A
:10385000E7FF04E000F013F9204600F03FF9257778
:1038600020680169C943490717D4C168C94349079A
:1038700013D46FF004010161022020772068806971
:1038800010F4407F204602D0FFF7CAFF04E000F0AA
:10389000F6F8204600F022F9257720680169C9432F
:1038A000090716D4C168C943090712D46FF008018B
:1038B0000161042020772068C0698007204602D07B
:1038C000FFF7AEFF04E000F0DAF8204600F006F95A
:1038D000257720680169C943C90617D4C168C9435F
:1038E000C90613D46FF01001016108202077206809
:1038F000C06910F4407F204602D0FFF791FF04E03A
:1039000000F0BDF8204600F0E9F82577206801694D
:10391000C943C90708D1C168C943C90704D1891E71
:103920000161204600F0DBF820680169C9430906FF
:1039300009D4C168C943090605D46FF0800101614B
:103940002046FFF709FE20680169C943490609D4EA
:10395000C168C943490605D46FF0400101612046A2
:1039600000F0C4F820680169C94389060BD4C16816
:10397000C943890607D46FF0200101612046BDE8E4
:103980007040FFF7EABD70BD70B586B004461421E3
:103990006846FCF750FE20492068884239D11F480C
:1039A0000024016841F001010160016801F001019A
:1039B0000591016841F002010160016801F0020116
:1039C0000591016841F0100101600068022600F0D5
:1039D0001000059080200090CDE901640125694622
:1039E0000F48CDE90345FEF7F7FA0095CDE90164EC
:1039F00069460C48CDE90345FEF7EEFA4FF4206026
:103A00000090CDE9016469460748CDE90345FEF71A
:103A1000E3FA06B070BD00000000014030380240FB
:103A200000000240000402400010024070B504464D
:103A300090F83C00002501280FD0012084F83C00BC
:103A40006AB1042A0FD0082A11D00C2A13D00125FC
:103A5000002084F83C00284670BD022070BD20681C
:103A600000F03AFBF4E7206800F066FBF0E720681E
:103A700000F098FBECE7206800F0C8FBE8E770472F
:103A800010B5040003D094F83D0010B107E0012008
:103A900010BD002084F83C00204600F01EF80220F3
:103AA00084F83D00211D206800F0A0FA012084F870
:103AB000460084F83E0084F83F0084F8400084F813
:103AC000410084F8420084F8430084F8440084F8FC
:103AD000450084F83D00002010BD70477047006825
:103AE000B0F1804F01D1FEF77DBC70477047FEE713
:103AF000F0B500230A24302537261F4611E000BF09
:103B0000B4EB107F02D905EB107C01E006EB107CD2
:103B100001F813C001EB430C00015B1C8CF8017031
:103B2000DBB29342ECD3F0BD074C01212046FEF7F7
:103B30004BFB06A002F0A2FE6420FEF73BFA012038
:103B400002F0CDF9F1E70000000C024070726F67DF
:103B500072616D206F6E63652072756E6E696E673F
:103B60002100000010B5074A0021074802F0F2F9D1
:103B7000064C044A002120602432054802F0EAF98C
:103B8000606010BD38770008113F00080000002079
:103B9000293B000830B587B014216846FCF74BFD7F
:103BA0001D480024016841F080010160016801F0B6
:103BB00080010591016841F001010160016801F097
:103BC00001010591016841F002010160016801F005
:103BD00002010591016841F010010160016801F0E6
:103BE00010010591016841F00801016000680B4D6A
:103BF00000F008000590002205212846FEF7ECFAA7
:103C0000052000900120CDE901046946284603946F
:103C1000FEF7E2F907B030BD30380240000C024038
:103C20000D4810B50B4901600C49416000214FF46B
:103C300080428160C0E9031241618161C16101621A
:103C4000FEF7D6FA002803D0BDE81040FEF7AFB962
:103C500010BD0000005400408C010020A08601002F
:103C600010B596B000240F941094119412941394EC
:103C70001C2168461494FCF7DEFC202107A8FCF701
:103C8000DAFC2B482949C0E900144FF6FF71C0E95E
:103C90000241046144618461FFF7D2FC08B1FEF780
:103CA00086F94FF480500F900FA92148FFF74AFD85
:103CB00008B1FEF77CF91E48FFF7E2FE08B1FEF7F7
:103CC00076F9139413A91A481494FFF771FC08B1FC
:103CD000FEF76DF900940194029403940494059402
:103CE0000022694612480694FFF7A0FE08B1FEF7CD
:103CF0005EF9042269460E48FFF798FE08B1FEF708
:103D000056F90794089409944FF400500A94CDE9A9
:103D10000B4007A906480E94FFF720FC08B1FEF7F8
:103D200046F90348FFF730FE16B010BD0000014011
:103D3000E001002010B500220F49104800F0C9FE34
:103D400008B1FEF734F90E490C4801F0D7F808B174
:103D5000FEF72DF90B49094800F06AFC08B1FEF79F
:103D600026F9064801F04EF9002803D0BDE81040BE
:103D7000FEF71DB910BD00000800002070020020F1
:103D8000D400002058000020FEE7FEE70148FEF7BF
:103D90004FBD00006C1900202DE9F04103680D466D
:103DA00004461E6C03EB4511D1F8080BD4F810E063
:103DB0004FF400474FF0200C04F2C442BEF1010F53
:103DC00009D0DFF898E0764539D1020432D500BF3A
:103DD000C1F8087B3FE0224B5FEA007E04D59E429B
:103DE00039D90004F4D436E05FEA806E02D5C1F818
:103DF00008CB30E010F0280F2DD19E4201D90004ED
:103E0000E6D405EBC50004EB8000D1F8101BD0F818
:103E10009832C1F31201591AC0F89C1200F51F70B4
:103E2000ADB983691BB10269114401610FE0012141
:103E300020680AE080060AD5C1F808CB07E035B94A
:103E4000D4F8940218B90021184601F0D9FCE9B25F
:103E50002046FEF7C5FB0020BDE8F0810A31544F33
:103E60000A30544F2DE9F84F0E4601EBC60100EB26
:103E7000810481460568616DE06D3C34884202D959
:103E80000120BDE8F88F081AE168814200D2084697
:103E9000C01C870805EB46181BE000BFA0EB010A19
:103EA000E068504500D282460AF10300870899F87D
:103EB000100000901FFA8AF3F2B22846216901F03F
:103EC000B9FF216901EB0A002061216A01EB0A00B8
:103ED0002062D8F8180980B2B84205D3216AA069D7
:103EE000814201D20028D9D1216AA069884208D82C
:103EF00006F00F0101208840D5F834188143C5F839
:103F000034180020BDE70178407841EA002070476E
:103F1000FFF710FF012001F0E2FFFBE710B54FF0C3
:103F2000E020006903F01CFA012803D0BDE810402E
:103F300002F04ABF10BD000030B593B03021684692
:103F4000FCF779FB14210CA8FCF775FB1E48002533
:103F5000016841F080510160006800F080501190CC
:103F60001A48016841F4804101600068022400F4AD
:103F70008040119001200090000401908001CDE963
:103F80000640082008904FF4A870CDE909040720E6
:103F90000B906846FFF72AF908B172B6FEE70CA944
:103FA0000F2081E831004FF4A0500F904FF4805063
:103FB000109005210CA8FFF719F8002801D072B65F
:103FC000FEE713B030BD00004038024000700040F2
:103FD0000248016841F470010160704788ED00E01B
:103FE0000148FFF71EBC000028020020F0B502685F
:103FF000254C264D264E274F274B4FF0804CA04294
:1040000009D0604507D0A84205D0B04203D0B842DD
:1040100001D0984204D122F0700E4A6842EA0E02A2
:10402000A0421BD0604519D0A84217D0B04215D08D
:10403000B84213D0984211D0184DA8420ED0184D56
:10404000A8420BD0174DA84208D0174DA84205D062
:10405000164DA84202D0164DA84203D122F4407555
:10406000CA682A434D6922F080022A4302608A68A6
:10407000C2620A688262A04201D0984201D10969F5
:10408000016301214161F0BD0000014000040040D6
:1040900000080040000C00400004014000400140C6
:1040A000004401400048014000180040001C00404E
:1040B0000020004010B5846842EA032224F47F44C3
:1040C0000A432243826010BD826822F070020A43D4
:1040D00042F0070181607047F0B5026A22F00102E8
:1040E0000262036A42688469124E24F073050C6808
:1040F0002C4323F002058B682B430D4DA84201D0C1
:10410000B04205D123F00807CB683B4323F00403FA
:10411000A84201D0B04205D14D6922F44072154346
:104120008A692A4342608461496841630362F0BD41
:104130000000014000040140F0B5026A22F01002C4
:104140000262026A436884690D6824F4E64444EA22
:1041500005248D6822F0200242EA05120F4D104E10
:10416000A84201D0B04206D1CF6822F0800242EAD4
:10417000071222F04002A84201D0B04207D14D6997
:1041800023F4406343EA85038D6943EA8503436072
:104190008461496881630262F0BD00000000014053
:1041A00000040140F0B5026A22F480720262026AE1
:1041B0004368C46922F4007224F073050C68124E3F
:1041C0002C438D6842EA05220E4DA84201D0B04230
:1041D00006D1CF6822F4006242EA072222F480620C
:1041E000A84201D0B04207D14D6923F4405343EABD
:1041F00005138D6943EA05134360C4614968C163CF
:104200000262F0BD000001400004014030B5026AC6
:1042100022F480520262046A4268C3690D6823F482
:10422000E64343EA05238D6824F4005444EA053448
:10423000084DA84202D0084DA84204D14D6922F48D
:10424000804242EA85124260C361496801640462A7
:1042500030BD0000000001400004014010B5036AB9
:10426000046A24F001040462846924F0F00444EA3E
:10427000021423F00A020A438461026210BD10B5E1
:10428000036A23F0100303628369046A23F4704312
:1042900043EA023224F0A00343EA01118261016281
:1042A00010BD2DE9F0410C46D0F8D412D0F8C82248
:1042B00000EB8101D1F8C01229B304F00F0606EB20
:1042C000860300EB83050027AB694BB106EBC606FE
:1042D00002EB8602926CB3FBF2F602FB1632A2B13D
:1042E000C1F81472D0F8D42200EB8200D0F8C402D6
:1042F00003692BB1D1F80802224601F504719847F1
:104300000020BDE8F0810320FBE700231A46214688
:10431000AF6100F0D4FDF3E770B50546D0F8D402E4
:1043200005EB8000D0F8C04294B1284600F0A9FC0B
:10433000C4F80C02D5F8D412D4F8040205EB8101BC
:10434000D1F8C412CA6804F503719047002070BD0B
:10435000032070BD70B5224D0446297800F0D5FBCE
:104360002878002600F00F0000EB800004EB8000AE
:1043700086846978204600F0C8FB687800F00F005A
:1043800000EB800004EB8000A0F86461A97820466F
:1043900000F0BBFBA87800F00F0000EB800004EBFE
:1043A00080008684C684D4F8D40204EB8000D0F860
:1043B000C01299B1D0F8C40240688047D4F8D40242
:1043C00004EB8000D0F8C00200F09DFFD4F8D402C6
:1043D00004EB8000C0F8C062C4F8BC62002070BD6D
:1043E0008000002010B5D0F8D41200EB8100D0F886
:1043F000C04284B1D0F8C41259B194F80002FF2829
:1044000007D08B6894F8012221469847FF2084F852
:104410000002002010BD032010BD00000A21018011
:10442000004870478400002070B5064682210C4881
:1044300000F0FBFA05460121094800F0F6FA0446AF
:104440008121074800F0F1FA0DB11021A971402136
:1044500004B1A18000B1818043203080004870BD4C
:104460009000002070B5064682210D4800F0DDFA6C
:10447000054601210A4800F0D8FA0446812108487F
:1044800000F0D3FA0DB11021A9714FF4007104B1FD
:10449000A18000B1818043203080014870BD0000C0
:1044A0009000002070B5064682210C4800F0BDFA4D
:1044B00005460121094800F0B8FA04468121074861
:1044C00000F0B3FA0DB11021A971402104B1A1800F
:1044D00000B1818043203080004870BD90000020F2
:1044E0002DE9F04704464FF40775284600F00CFF0D
:1044F00006004FF0000863D02946FCF79CF8D4F87A
:10450000D4023C4D04EB80004FF01009C0F8C062AB
:10451000C4F8BC62207C4FF4007A0127F0B340233A
:1045200002222978204600F019FC2878402300F068
:104530000F0000EB800004EB800087840222697882
:10454000204600F00BFC6878082300F00F0000EB19
:10455000800004EB80000322A0F86471A978204653
:1045600001F00F0101EB810104EB8101A1F826901C
:10457000A97800F0F3FBA87800F00F0000EB8000B2
:1045800004EB80008784C6F80482D4F8D40247463E
:1045900004EB8000D0F8C402006800E018E006F5E3
:1045A000017680473761776132687AB1207CF8B153
:1045B00040236978204600F0DDFB0020BDE8F0874D
:1045C000D4F8D41204EB8101C1F8C0820220F5E7CF
:1045D000534602222978204600F0C0FB2878534633
:1045E00000F00F0000EB800004EB80008784A5E75B
:1045F0005346DEE78000002010B5D0F8D41200EB5F
:104600008101D1F8C01259B1027C084C002AD1F8BE
:10461000042207D04023617800F0ACFB002010BDDD
:10462000032010BD4FF40073F5E700008000002068
:1046300039B1D0F8D42200EB8200C0F8C4120020B7
:10464000704703207047D0F8D42200EB8200D0F8E6
:10465000C00218B1C0F80412002070470320704750
:10466000D0F8D43200EB8300D0F8C00228B1C0F8F3
:104670001022C0F8081200207047032070472DE96F
:10468000FC410646D0F8D4020C4606EB800000211F
:10469000D0F8C0728DF80010ADF804100D4637B197
:1046A000217811F060022FD0202A4BD102E00320A4
:1046B000BDE8FC81E288F2B109060DD5D0F8C4024C
:1046C00063783946D0F808C01846E047E288072AE0
:1046D00000D9072239462DE0607887F80002E0888B
:1046E000402800D34020C2B287F801223946304624
:1046F00000F081F82BE0D0F8C402637800228668CD
:1047000021461846B04722E0607830B101281ED01B
:104710000A2809D00B2815D110E096F89C0203282E
:1047200010D1022201A905E096F89C02032809D1C4
:1047300001226946304600F078F808E096F89C02BD
:10474000032804D02146304600F04AF803252846C5
:10475000AEE7000010B5D0F8D41200EB8101D1F81B
:10476000C02201211AB1D2F8143213B116E003208D
:1047700010BD0121C2F814120949D2F8103209788B
:1047800001F00F0404EB840400EB8404A361D2F86D
:104790001032D2F8082200F092FB0021084610BD2A
:1047A0008000002010B5D0F8B8220024526890474D
:1047B00000B10324204610BD002070470020704740
:1047C000134610B50A46002100F0D4FA002010BDAF
:1047D000134610B50A46002100F071FB002010BD01
:1047E00010B50446802100F04FFB2046BDE8104084
:1047F000002100F049BB10B50323C0F89432C0F883
:1048000058211346C0F85C210A46002100F0B2FA94
:10481000002010BD10B50521C0F8941200231A46DF
:10482000194600F0A7FA002010BD10B50223C0F809
:10483000943282611346C2610A46002100F03FFBB8
:10484000002010BD10B50421C0F8941200231A46B0
:10485000194600F034FB002010BD000010B50A46D8
:10486000024903A000F005F9004810BD4C050020E6
:1048700043444320436F6E6669670000122008803E
:10488000004870472800002010B50A46024903A0DE
:1048900000F0EFF8004810BD4C05002043444320D1
:1048A000496E7465726661636500000004200880CB
:1048B000004870472400002010B50A46024903A0B2
:1048C00000F0D7F8004810BD4C05002053544D6946
:1048D00063726F656C656374726F6E6963730000F9
:1048E00010B50A46024903A000F0C3F8004810BD05
:1048F0004C05002053544D33322056697274756153
:104900006C20436F6D506F727400000010B51A2058
:1049100008800A480168001D0468001D0068081826
:1049200009D008220649FFF7E3F8054904221031AF
:104930002046FFF7DDF80248801E10BD107AFF1FE9
:104940003E000020F8B504460020ADF8000048887D
:104950000D46010A08295FD2DFE801F05E0409175D
:104960005E5E3C45D4F8B412207C0A6819E0207CD5
:1049700002260028D4F8B80205D0C16A68468847E4
:104980000146467039E0816AF8E7C0B2062843D292
:10499000DFE800F0030A1014181CD4F8B4024268CF
:1049A00005E0694690471CE0D4F8B402826892B3EF
:1049B000207CF6E7D4F8B402C268F8E7D4F8B40271
:1049C0000269F4E7D4F8B4024269F0E7D4F8B4021B
:1049D0008269ECE7207CF0B9D4F8B802416B6846F4
:1049E0008847014609E0207CA8B9D4F8B802016BD9
:1049F00068468847014607204870EA888AB1BDF8B2
:104A0000000040B1824200D90246ADF800202046A5
:104A1000FFF70BFFF8BDFFE729462046FFF7E0FE52
:104A2000F8E72046FFF70EFFF4E778B50E46428818
:104A30000178002504468A4212D9ADF800100AE038
:104A4000694600F00FF84178052904D181780546C0
:104A5000B14205D000256188BDF800209142EFD811
:104A6000284678BD0A8803781A440A8001780844E9
:104A7000704770B5002300281ED00025044602E0D0
:104A80006D1CEDB2641C2678002EF9D1022404EBD3
:104A9000450414801278CA545B1C0322CA540024B3
:104AA0005B1C06E0CA545B1CDAB28C54521CD3B2B5
:104AB000401C0278002AF5D170BD01004FF00000C3
:104AC00004D0012901D0022901D003207047012020
:104AD000704778B10023C0F8B832C0F8C432C0F8CB
:104AE000D03209B1C0F8B412012180F89C120270D2
:104AF00000F0CCB80320704710B5D0F8C802FDF71D
:104B0000B2FDBDE81040FFF7D8BF10B5D0F8C8021D
:104B1000FDF783FDBDE81040FFF7CFBF2DE9F04161
:104B200017460446002521B194F89C02032842D080
:104B30004CE0D4F8941204F11400022935D1D0E9E4
:104B400002639E4206D9F21A826039462046FFF778
:104B50003FFE0FE0B34214D14068984211D3D4F81D
:104B6000981288420DD2002211462046FFF730FEEF
:104B7000C4F8985200231A461946204600F0FAF865
:104B800013E094F89C02032808D1D4F8B802C16855
:104B900021B1C4F8D452C1682046884780212046FC
:104BA00000F072F92046FFF735FE94F8A00268B1D4
:104BB00084F8A0520AE0D4F8B802426932B1C4F8CD
:104BC000D452426920469047002800D10020BDE819
:104BD000F08170B513460446002221B194F89C027E
:104BE000032830D03AE0D4F8941204F5AA700329CF
:104BF00034D1D0E902518D420AD96A1A826008463E
:104C0000824200D3024619462046FFF7D9FD25E02F
:104C100094F8AA0210F01F0003D0012802D0022845
:104C200000D0002294F89C02032808D1D4F8B802DE
:104C3000016921B1C4F8D422016920468847204681
:104C4000FFF700FE0AE0D4F8B802836933B1C4F874
:104C5000D422826920469047002800D1002070BDF0
:104C60000020704710B50024012180F89C12D0F874
:104C7000B82222B152680179904700B1032420463E
:104C800010BDD0F8C802FDF71CBD000010B50178BA
:104C900039BB15490222C1F80805C0F8C8124FF007
:104CA000A0400860042048600020C1E90320C1E959
:104CB000062008624862C86208630846FEF770F87A
:104CC00008B1FDF774F980210748FDF756FC402232
:104CD00000210548FDF755FC802201210248FDF71F
:104CE00050FC002010BD00006C1900200A0601F0E5
:104CF0007F01D0F8C80201EBC10100EB810002D5B1
:104D000090F83E00704790F87E02704710B5D0F8DA
:104D1000D42200EB8202D2F8B82222B190F89C3261
:104D2000032B02D004E0032010BD126A02B19047A9
:104D3000002010BD10B5D0F8D42200EB8202D2F8CA
:104D4000B82222B190F89C32032B02D004E0032059
:104D500010BD526A02B19047002010BD10B51C462C
:104D60001346D0F8C8022246FDF7B4FCBDE8104057
:104D7000FFF7A3BE10B5D0F8C802FDF7DBFCBDE815
:104D80001040FFF79ABE2DE9F041002601250446A8
:104D900080F89C52C4F894626660C4F8A46280F8FB
:104DA000A062D0F8B80230B1426822B1002120469A
:104DB000904700B103260022402311462046FFF70A
:104DC000CDFF4027A4F864513B46002280212046B5
:104DD000C4F86071FFF7C2FFA58430462762BDE8C2
:104DE000F08190F89C12042903D190F89D1280F86C
:104DF0009C120020704710B590F89C12032905D131
:104E0000D0F8B81211B1C96901B18847002010BDAE
:104E100001740020704710B5D0F8C802FEF792F870
:104E2000BDE81040FFF749BE70B5044600F2AA2065
:104E3000054600F04DF80120C4F89402B4F8B00221
:104E4000C4F8980294F8AA0210F01F010AD00129B0
:104E50000ED0022912D000F080012046BDE870403B
:104E600000F012B829462046BDE8704000F0CCB8EA
:104E700029462046BDE8704000F00CBA294620467D
:104E8000BDE8704000F056B910B5D0F8C802FDF783
:104E900075FCBDE81040FFF710BE10B5D0F8C80291
:104EA000FEF76BF8BDE81040FFF707BE90F89C12C4
:104EB00080F89D12042180F89C120020704710B5E4
:104EC000D0F8C802FDF794FCBDE81040FFF7F5BD2F
:104ED00070B5054611F8010B2870087868704C1CF5
:104EE0002046FFF710F86880A41C2046FFF70BF857
:104EF000A880A01CFFF707F8E88070BD38B504460D
:104F00000020ADF80000A1B1C4F8B812D4F8D40262
:104F100004EB8000D0F8B802C16A19B1684688472E
:104F2000C4F8D002D4F8D802401CC4F8D80200203B
:104F300038BD032038BD02460020D2F8B832002B1D
:104F400002D01B6810461847704700002DE9F04159
:104F500088462B4E8978002504463170012906D9F0
:104F600041462046FFF73CFC0320BDE8F08194F861
:104F70009C02022702280CD003281DD0414620465F
:104F8000FFF72EFC31782046FFF70CFC032528465E
:104F9000EBE789B320466160FFF7CDFF050004D041
:104FA00041462046FFF71CFC1DE02046FFF74AFC67
:104FB000032084F89C02EAE7C1B1606888421BD0F4
:104FC000C1B22046FFF7EEFB317820466160FFF763
:104FD000B2FF050010D041462046FFF701FC2179C1
:104FE0002046FFF7DFFB84F89C72D0E784F89C72C0
:104FF00020466160FFF7D6FB2046FFF723FCC6E79B
:105000007C000020FFF749BF2DE9F0410A78002518
:1050100012F060020CD0202A01D0402A7DD1D0F8B5
:10502000D42200EB8202D2F8B8229268904731E095
:105030004B78002201260A2B6FD2DFE803F041668D
:105040006E586E08056E2D29FFF77CFC67E004465C
:105050008888D8B9C888C8B94888802816D200F08E
:105060007F0794F89C02032810D084F89E7239467A
:105070002046FFF7D0FE2046FFF7E4FB1FB10220D9
:1050800084F89C024BE084F89C6248E0204644E0AF
:10509000FFF75CFF054642E0CB88012B3DD190F83D
:1050A0009C32012B04D0022B02D0032B35D104E01B
:1050B0008260012200F1080116E00122011D13E0C7
:1050C00090F89C22012A03D0022A01D0032A24D17D
:1050D000CA88022A21D1C660D0F8A41209B10321DE
:1050E000C160022200F10C01FFF79FFB17E04A8824
:1050F000012A02D0022A03D00FE0C0F8A46216E011
:105100008988090A80F8A01211E090F89C32012BDE
:1051100008D0022B06D0032B04D0FFF761FB2846F2
:10512000BDE8F08149880129F9D1C0F8A422FFF730
:1051300089FBF4E72DE9F041054608780C790E4625
:105140004FF0000810F060000BD0202801D040285C
:105150006AD121462846FFF72FFBFF2800D0D8B39D
:1051600095E07078C8B3012824D003285CD195F865
:105170009C02022802D0032856D10CE0002C53D008
:10518000802C51D021462846FFF77EFE80212846FC
:10519000FFF77AFE7BE0708840B93CB1802C05D0E7
:1051A000C88818B921462846FFF76EFE2846FFF743
:1051B00049FB6CE095F89C020228DFD0032863D1FC
:1051C000708880BB600603D021462846FFF794FC18
:1051D0002846FFF737FBBCE700E00AE0C5F8D40239
:1051E000D5F8B8028268F2B1314628469047804629
:1051F0004DE095F89C020027022802D0032843D1F5
:1052000013E00CB1802C3FD1200604F07F0000EBAE
:10521000800005EB800101D5143101E001F5AA7190
:1052200002220F602CE032E02EE0200604F00F0096
:1052300000EB800005EB800009D5808C20B304F0E2
:105240007F0000EB800005EB800614360AE0B0F822
:105250006401C8B104F07F0000EB800005EB80061C
:1052600006F5AA764CB1802C07D021462846FFF7D8
:105270003DFD10B10120306000E037600222314670
:105280002846FFF7D2FA02E02846FFF7A9FA40467F
:10529000BDE8F08170B50546087800240E4610F090
:1052A000600003D0202801D0402827D195F89C0227
:1052B000012803D0022801D003281FD1B088C1B231
:1052C00001291AD8C1B22846FFF778FAFF280CD076
:1052D00058B9D5F8B8128A683AB1C5F8D4028A68C4
:1052E000314628469047044600E00324F0882043D6
:1052F00007D12846FFF7A6FA03E031462846FFF714
:105300006FFA204670BD7047004870474C17002068
:1053100070B50A78012302F00F054E78AB401B4CA4
:10532000D0F81C58012E17D045EA0343C0F81C38AA
:1053300000EB4210D0F8002B12040BD4D0F8002B55
:105340008B890979C3F30A031A4344EA81410A436A
:10535000C0F8002B002070BD9BB21D43C0F81C5844
:1053600000EB4210D0F800391B04F3D4D0F8003918
:105370008D890979C5F30A0589042B4341EA8251D5
:105380000B432343C0F80039E4E70000008000101D
:10539000D0F800196FF30A01C0F80019D0F804180A
:1053A00041F48071C0F804180020704770B50446BD
:1053B00006990A9E049D0D98012916D0E06840F0D8
:1053C0004000E060204600F02BF8A16B1EB321F4F2
:1053D0008031A163012D07D1A16841F00601A160D0
:1053E000A16841F02001A16070BDA16B21F4803162
:1053F000A163E168094A1140E160E16821F44011CC
:10540000E160012803D1E06840F48010E0602046AC
:1054100000F006F8DEE741F48031DAE7BFFFBDFFB8
:1054200008B500220D490092009B5B1C00938B4243
:105430000CD80369002BF7DA0092026942F00102EE
:105440000261009A521C00928A4201D9032008BDD1
:105450000269D207F5D1002008BD0000400D03000D
:1054600030B54C780A78012300EB4212012C2CD085
:10547000D2F8004B002C0BDAD2F8004B44F0006459
:10548000C2F8004BD2F8004B44F08044C2F8004B05
:10549000D0F83C580C7804F00F0403FA04F425EA21
:1054A0000444C0F83C48D0F81C48097801F00F01CA
:1054B0008B4024EA0341C0F81C18D2F8000B1949AC
:1054C0000840C2F8000B002030BDD2F80049002C83
:1054D0000BDAD2F8004944F00064C2F80049D2F86F
:1054E000004944F08044C2F80049D0F83C480D78A7
:1054F00005F00F0503FA05F5ADB2AC43C0F83C4822
:10550000D0F81C48097801F00F018B4099B28C4308
:10551000C0F81C48D2F8000903490840C2F8000945
:10552000D1E700000078F3EF007833ECD0F8001EEC
:1055300021F00301C0F8001ED0F8041821F0020188
:10554000C0F8041800207047D0F8001E21F00301B5
:10555000C0F8001ED0F8041841F00201C0F8041889
:10556000002070472DE9F04F00250E460446DDF877
:105570002CC0DDF824B0109F2846294604EB800299
:10558000C2F80411401C0F28F8D32046C7B1806B25
:1055900020F40012A263A06B40F40022A26308462C
:1055A0008846C4F8000ED4F800182046C4F8001845
:1055B000BCF1010F16D0D0F8001841F0030116E03D
:1055C000D0F8040840F00202C4F80428A06B40F4AC
:1055D0000012A263A06B20F40022A263A06B20F44F
:1055E0008022DBE7D0F800180BB141F00101C0F8D0
:1055F0000018102100F0EEFA00B10125204600F05D
:10560000CBFA00B101254046C4F81088C4F81488CC
:10561000C4F81C8800214FF000694FF0904A4FF603
:105620007F3314E004EB4112D2F800C9BCF1000F43
:1056300006DA11B1C2F800A904E0C4F8009901E04B
:10564000C2F80009C2F81009C2F80839491C8E4294
:10565000E8D8002115E000BF04EB4112D2F800CBDE
:10566000BCF1000F06DA11B1C2F800AB04E0C4F8D7
:10567000009B01E0C2F8000BC2F8100BC2F8083B17
:10568000491C8E42E8D8D4F8101821F48072C4F86E
:105690001028A0616FF080406061BBF1000F03D162
:1056A000A06940F01000A061A06909490843A06109
:1056B0000C9818B1A06940F00800A061012F03D137
:1056C000A06904490843A0612846BDE8F08F0000A6
:1056D00000383C8004000040816821F001018160B5
:1056E0000020704770B50D784E78444CEBB200EB5B
:1056F0004313012E21D0D3F8100B6FF31200C3F81F
:10570000100BD3F8100B2040C3F8100B886908B1B8
:10571000C8688861C868C861D3F8100B40F40020DD
:10572000C3F8100BD3F8100BCC69C4F31204204358
:10573000C3F8100B012A55D058E08E69002ED3F81B
:10574000106932D06FF31206C3F81069D3F81069EC
:105750002640C3F810698E69CC68A64200D98C61D6
:10576000D3F8104944F40024C3F81049D3F8104981
:105770008E69C6F312063443C3F81049012A22D0B9
:1057800000EB4512D2F8003943F00443C2F8003967
:105790008A6932B3D0F83428097801F00F03012167
:1057A00099400A43C0F8342826E02640C3F810691F
:1057B000D3F8104944F40024C3F81049D3F8104931
:1057C0006FF31204D8E7496919B100EB4512C2F82A
:1057D000141900EB4510D0F8001941F00441C0F84D
:1057E000001909E0086908B1C3F8140BD3F8000BDD
:1057F00040F00440C3F8000B002070BDFFFF07E03D
:1058000010B5036C134CA34203D9D0F8003B002B16
:105810001EDB0023C0F8103BD0F8103B43F40023FC
:10582000C0F8103BD0F8103B43F01803C0F8103B11
:10583000D0F8103B43F0C043C0F8103B012907D11A
:10584000C0F8142BD0F8001B41F08021C0F8001BD9
:10585000002010BD0A30544F4A780B78012A00EB23
:1058600043100BD0D0F8002B22F40012C0F8002B0C
:105870000979032914D0022912D017E0D0F80029A1
:1058800022F40012C0F800290979032901D0022965
:105890000CD1D0F8001941F08051C0F8001905E092
:1058A000D0F8001B41F08051C0F8001B0020704769
:1058B0000A784B78D1B200EB4110012B12D0D0F80E
:1058C000001B002906DB2AB1D0F8001B21F0804123
:1058D000C0F8001BD0F8001B41F40011C0F8001BF9
:1058E00000207047D0F80019002906DB2AB1D0F853
:1058F000001921F08041C0F80019D0F8001941F4D6
:105900000011C0F80019EBE7F8B50C784F78764D28
:10591000E3B26FF0604600EB4313012F27D0D3F8BA
:10592000104B6FF31204C3F8104BD3F8104B2C40FC
:10593000C3F8104B8D69002D75D0CC6825446D1EC1
:10594000B5FBF4F5ADB26C43CC61D3F8104B06EA6D
:10595000C5452C43C3F8104BD3F8104BCD69C5F3A4
:1059600012052C43C3F8104B012A71D0A4E08F69B3
:105970001FB3D3F810796FF31207C3F81079D3F877
:1059800010792F40C3F810798F69CD682F447F1E9E
:10599000B7FBF5F506EAC545D3F810693543C3F8FA
:1059A0001059D3F810598E69C6F312063543C3F85F
:1059B00010590D79012D10D01BE0D3F810692E403D
:1059C000C3F81069D3F8105945F40025C3F81059ED
:1059D000D3F810596FF3120509E0D3F8105925F0E8
:1059E000C045C3F81059D3F8105945F00055C3F815
:1059F0001059012A18D000EB4413D3F8004944F0A1
:105A00000444C3F800490C79012C2FD08A6962B391
:105A1000D0F83428097801F00F03012199400A4396
:105A2000C0F834285EE036E04A691AB100EB44134E
:105A3000C3F81429097901290FD1D0F80818C9052C
:105A400000EB4411D1F8002903D442F0005202E0E7
:105A50002EE042F08052C1F8002900EB4410D0F84B
:105A6000001941F00441C0F800193BE0D0F80848A3
:105A7000E405D3F8004902D444F0005401E044F0B6
:105A80008054C3F8004900920A8B93B20A780969DE
:105A900000F0D0F926E0D3F8104BCD68C5F312051D
:105AA0002C43C3F8104BD3F8104B44F4002459E7AF
:105AB0000A690AB1C3F8142B097901290CD1D0F86D
:105AC0000808C005D3F8000B02D440F0005001E0F4
:105AD00040F08050C3F8000BD3F8000B40F00440B6
